:020000040800F2
:1000000000C0002069370008651200086712000868
:10001000691200086B1200086D1200080000000051
:100020000000000000000000000000006F12000847
:100030007112000800000000731200087512000819
:10004000B1370008B1370008B1370008B1370008F0
:10005000B1370008B1370008C1120008CB12000800
:10006000D5120008DF120008B1370008811200081D
:10007000B1370008B137000891120008A11200083A
:10008000B1370008B1370008B1370008B1370008B0
:10009000B1370008B1370008B1370008E91200088D
:1000A000B1370008B1370008B1370008B137000890
:1000B000B1370008B1370008B1370008B137000880
:1000C000B1370008B1370008B1370008B137000870
:1000D000B1370008B1120008B1370008B137000885
:1000E000B1370008B1370008B1370008B137000850
:1000F000B1370008B1370008B1370008B137000840
:10010000B1370008B1370008B1370008B13700082F
:10011000B1370008B1370008B1370008B13700081F
:10012000B1370008B1370008B1370008B13700080F
:1001300000000000000000000000000000000000BF
:1001400000000000000000000000000000000000AF
:10015000000000000000000000000000000000009F
:10016000000000000000000000000000000000008F
:10017000000000000000000000000000000000007F
:10018000000000000000000000000000000000006F
:10019000000000000000000000000000000000005F
:1001A000000000000000000000000000000000004F
:1001B000000000000000000000000000000000003F
:1001C000000000000000000000000000000000002F
:1001D000000000000000000000000000000000001F
:0401E0005FF8E0F1F3
:1001E80010B5054C237833B9044B13B10448AFF369
:1001F80000800123237010BD0802002000000000C9
:10020800A453000808B5034B1BB103490348AFF3D7
:10021800008008BD000000000C020020A453000864
:10022800034613F8012B002AFBD1181A013870472E
:1002380081F0004102E000BF83F0004330B54FEA8F
:1002480041044FEA430594EA050F08BF90EA020FFC
:100258001FBF54EA000C55EA020C7FEA645C7FEA8F
:10026800655C00F0E2804FEA5454D4EB5555B8BFB2
:100278006D420CDD2C4480EA020281EA030382EA23
:10028800000083EA010180EA020281EA0303362DB5
:1002980088BF30BD11F0004F4FEA01314FF4801C88
:1002A8004CEA113102D0404261EB410113F0004F9A
:1002B8004FEA03334CEA133302D0524263EB430351
:1002C80094EA050F00F0A780A4F10104D5F1200EEF
:1002D8000DDB02FA0EFC22FA05F2801841F100014A
:1002E80003FA0EF2801843FA05F359410EE0A5F11E
:1002F80020050EF1200E012A03FA0EFC28BF4CF04F
:10030800020C43FA05F3C01851EBE37101F0004504
:1003180007D54FF0000EDCF1000C7EEB00006EEB11
:100328000101B1F5801F1BD3B1F5001F0CD349089B
:100338005FEA30004FEA3C0C04F101044FEA4452F2
:1003480012F5800F80F09A80BCF1004F08BF5FEA79
:10035800500C50F1000041EB045141EA050130BD59
:100368005FEA4C0C404141EB0101013C28BFB1F56B
:10037800801FE9D291F0000F04BF01460020B1FAB6
:1003880081F308BF2033A3F10B03B3F120020CDA89
:100398000C3208DD02F1140CC2F10C0201FA0CF067
:1003A80021FA02F10CE002F11402D8BFC2F1200CCC
:1003B80001FA02F120FA0CFCDCBF41EA0C01904082
:1003C800E41AA2BF01EB0451294330BD6FEA0404CB
:1003D8001F3C1CDA0C340EDC04F11404C4F12002B6
:1003E80020FA04F001FA02F340EA030021FA04F3C8
:1003F80045EA030130BDC4F10C04C4F1200220FA1F
:1004080002F001FA04F340EA0300294630BD21FA5C
:1004180004F0294630BD94F0000F83F4801306BF22
:1004280081F480110134013D4EE77FEA645C18BF16
:100438007FEA655C29D094EA050F08BF90EA020FAD
:1004480005D054EA000C04BF1946104630BD91EAA5
:10045800030F1EBF0021002030BD5FEA545C05D1A8
:100468004000494128BF41F0004130BD14F58004E7
:100478003CBF01F5801130BD01F0004545F0FE415B
:1004880041F470014FF0000030BD7FEA645C1ABF90
:10049800194610467FEA655C1CBF0B46024650EAC7
:1004A800013406BF52EA033591EA030F41F40021F3
:1004B80030BD00BF90F0000F04BF0021704730B579
:1004C8004FF4806404F132044FF000054FF000014E
:1004D80050E700BF90F0000F04BF0021704730B50F
:1004E8004FF4806404F1320410F0004548BF4042E4
:1004F8004FF000013EE700BF42004FEAE2014FEA39
:1005080031014FEA02701FBF12F07F4393F07F4F13
:1005180081F06051704732F07F4208BF704793F016
:100528007F4F04BF41F40021704730B54FF4607429
:1005380001F0004521F000411CE700BF50EA01022C
:1005480008BF704730B54FF000050AE050EA0102D5
:1005580008BF704730B511F0004502D5404261EB45
:1005680041014FF4806404F132045FEA915C3FF486
:10057800D8AE4FF003025FEADC0C18BF03325FEA23
:10058800DC0C18BF033202EBDC02C2F1200300FAD4
:1005980003FC20FA02F001FA03FE40EA0E0021FAF9
:1005A80002F11444BDE600BF70B54FF0FF0C4CF4E7
:1005B800E06C1CEA11541DBF1CEA135594EA0C0F99
:1005C80095EA0C0F00F0DEF82C4481EA030621EAD4
:1005D8004C5123EA4C5350EA013518BF52EA03350F
:1005E80041F4801143F4801338D0A0FB02CE4FF0C1
:1005F8000005E1FB02E506F00042E0FB03E54FF0F1
:100608000006E1FB03569CF0000F18BF4EF0010EE8
:10061800A4F1FF04B6F5007F64F5407404D25FEAE4
:100628004E0E6D4146EB060642EAC62141EA555197
:100638004FEAC52040EA5E504FEACE2EB4F1FD0CD9
:1006480088BFBCF5E06F1ED8BEF1004F08BF5FEA57
:10065800500E50F1000041EB045170BD06F0004609
:1006680046EA010140EA020081EA0301B4EB5C04B6
:10067800C2BFD4EB0C0541EA045170BD41F48011AE
:100688004FF0000E013C00F3AB8014F1360FDEBFD3
:10069800002001F0004170BDC4F10004203C35DAAF
:1006A8000C341BDC04F11404C4F1200500FA05F332
:1006B80020FA04F001FA05F240EA020001F00042D3
:1006C80021F0004110EBD37021FA04F642EB060149
:1006D8005EEA430E08BF20EAD37070BDC4F10C0473
:1006E800C4F1200500FA04F320FA05F001FA04F237
:1006F80040EA020001F0004110EBD37041F1000123
:100708005EEA430E08BF20EAD37070BDC4F120052D
:1007180000FA05F24EEA020E20FA04F301FA05F295
:1007280043EA020321FA04F001F0004121FA04F23D
:1007380020EA020000EBD3705EEA430E08BF20EA0D
:10074800D37070BD94F0000F0FD101F00046400047
:1007580041EB010111F4801F08BF013CF7D041EAC9
:10076800060195F0000F18BF704703F000465200CD
:1007780043EB030313F4801F08BF013DF7D043EA9E
:100788000603704794EA0C0F0CEA135518BF95EA54
:100798000C0F0CD050EA410618BF52EA4306D1D1DB
:1007A80081EA030101F000414FF0000070BD50EAFA
:1007B800410606BF1046194652EA430619D094EA84
:1007C8000C0F02D150EA013613D195EA0C0F05D16E
:1007D80052EA03361CBF104619460AD181EA0301C2
:1007E80001F0004141F0FE4141F470014FF000007A
:1007F80070BD41F0FE4141F4780170BD70B54FF015
:10080800FF0C4CF4E06C1CEA11541DBF1CEA135594
:1008180094EA0C0F95EA0C0F00F0A7F8A4EB050476
:1008280081EA030E52EA03354FEA013100F088806D
:100838004FEA03334FF0805545EA131343EA126336
:100848004FEA022245EA111545EA10654FEA0026EB
:100858000EF000419D4208BF964244F1FD0404F5A4
:10086800407402D25B084FEA3202B61A65EB030500
:100878005B084FEA32024FF480104FF4002CB6EBBD
:10088800020E75EB030E22BFB61A754640EA0C003D
:100898005B084FEA3202B6EB020E75EB030E22BF7D
:1008A800B61A754640EA5C005B084FEA3202B6EBBE
:1008B800020E75EB030E22BFB61A754640EA9C007D
:1008C8005B084FEA3202B6EB020E75EB030E22BF4D
:1008D800B61A754640EADC0055EA060E18D04FEA0B
:1008E800051545EA16754FEA06164FEAC30343EAAB
:1008F80052734FEAC2025FEA1C1CC0D111F4801F78
:100908000BD141EA00014FF000004FF0004CB6E770
:1009180011F4801F04BF01430020B4F1FD0C88BF0F
:10092800BCF5E06F3FF6AFAEB5EB030C04BFB6EB1A
:10093800020C5FEA500C50F1000041EB045170BD0D
:100948000EF0004E4EEA113114EB5C04C2BFD4EB3A
:100958000C0541EA045170BD41F480114FF0000EBE
:10096800013C90E645EA060E8DE60CEA135594EA3A
:100978000C0F08BF95EA0C0F3FF43BAF94EA0C0F3D
:100988000AD150EA01347FF434AF95EA0C0F7FF4B2
:1009980025AF104619462CE795EA0C0F06D152EA06
:1009A80003353FF4FDAE1046194622E750EA4106EA
:1009B80018BF52EA43067FF4C5AE50EA41047FF4FB
:1009C8000DAF52EA43057FF4EBAE12E74FF0FF3C60
:1009D80006E000BF4FF0010C02E000BF4FF0010C31
:1009E8004DF804CD4FEA410C7FEA6C5C4FEA430CAA
:1009F80018BF7FEA6C5C1BD001B050EA410C0CBFF9
:100A080052EA430C91EA030F02BF90EA020F00205A
:100A1800704710F1000F91EA030F58BF994208BFC1
:100A280090422CBFD8176FEAE37040F0010070477E
:100A38004FEA410C7FEA6C5C02D150EA013C07D1D5
:100A48004FEA430C7FEA6C5CD6D152EA033CD3D020
:100A58005DF8040B704700BF8446104662468C461A
:100A68001946634600E000BF01B5FFF7B7FF00284D
:100A780048BF10F1000F01BD4DF808EDFFF7F4FF76
:100A88000CBF012000205DF808FB00BF4DF808ED01
:100A9800FFF7EAFF34BF012000205DF808FB00BF24
:100AA8004DF808EDFFF7E0FF94BF012000205DF846
:100AB80008FB00BF4DF808EDFFF7CEFF94BF0120FB
:100AC80000205DF808FB00BF4DF808EDFFF7C4FFF4
:100AD80034BF012000205DF808FB00BF4FEA410C3D
:100AE8007FEA6C5C02D150EA013C0AD14FEA430C20
:100AF8007FEA6C5C02D152EA033C02D14FF000005D
:100B080070474FF0010070474FEA410212F500129A
:100B180015D211D56FF47873B3EB625212D94FEA3C
:100B2800C12343F0004343EA505311F0004F23FA26
:100B380002F018BF404270474FF00000704750EA7B
:100B4800013005D111F0004008BF6FF00040704738
:100B58004FF00000704700BFFF2800D90009024A83
:100B680053781843507070470000002030B597B094
:100B780000240F94119412940794089409940A94E9
:100B88000B9401940294039404940594069401220E
:100B98000C924FF480330D930E9410920225139506
:100BA80014934FF4E01315930CA801F079F80F2370
:100BB8000793089509944FF480630A930B94294688
:100BC80007A801F0ABFA01954FF40043039301A87D
:100BD80001F080FB17B030BD00B583B001F012F80A
:100BE800FFF7C4FF00F04EF800F0CCF900F0F8F879
:100BF80000F0F2F900F040FA00F09AFA084A80236F
:100C08000193009240230121064800F0C5FC05220B
:100C18000549064800F080FE052001F017F8F6E7C0
:100C28000010014038030020340200207002002028
:100C38007047000038B502680D4B9A4200D038BDA5
:100C48000C4C0D4B1A685B68C4F80220C4F80630D7
:100C58000A4D2B7823700A21204600F009FD00F088
:100C680013FD002363702B7801332B70E7E700BF77
:100C7800002401400000002034020020240200204B
:100C8800704700002DE9F04389B0002404940594CE
:100C9800069407944B4B9A6942F020029A619A692C
:100CA80002F020020092009A9A6942F004029A61C6
:100CB8009A6902F004020192019A9A6942F01002BC
:100CC8009A619A6902F010020292029A9A6942F0B5
:100CD80008029A619B6903F008030393039B3A4F48
:100CE80022464FF48451384601F0A1FC01224021EC
:100CF800384601F09CFCDFF8E0802246042140469B
:100D080001F095FC0F230493DFF8D090CDF81490F0
:100D18000226069604A92D4801F066FB4FF480537D
:100D280004932B4B05930125069504A9294801F046
:100D38005BFB4FF48653049305950694079604A924
:100D4800384601F051FB4FF440730493CDF81490EA
:100D5800069604A9384601F047FB04230493059539
:100D68000694079604A9404601F03EFB2246294610
:100D7800062001F049FF22462946072001F044FFDA
:100D880022462946082001F03FFF2246294609202D
:100D980001F03AFF22462946172001F035FF0620C8
:100DA80001F066FF072001F063FF082001F060FFF3
:100DB800092001F05DFF172001F05AFF09B0BDE8D6
:100DC800F08300BF001002400010014000080140FD
:100DD80000002110000C0140001401400000111017
:100DE80000B585B000230193029303932A482B4A48
:100DF80002604FF480728260037303754FF46022BF
:100E0800C26143600523036100F044FE002831D12C
:100E180004230193012302930323039301A91E488A
:100E280000F0A0FC48BB022302930523019301A90B
:100E3800194800F097FC18BB032302930823019379
:100E480001A9154800F08EFCE8B904230293092390
:100E5800019301A9104800F085FCB8B90523029355
:100E68000F23019301A90C4800F07CFC88B905B058
:100E78005DF804FBFFF704FFCAE7FFF701FFD2E7BD
:100E8800FFF7FEFED8E7FFF7FBFEDEE7FFF7F8FE09
:100E9800E4E7FFF7F5FEEAE77002002000240140CE
:100EA80030B589B00023049305930693079302682D
:100EB8002E4B9A4201D009B030BD044603F56C436D
:100EC8009A6942F400729A619A6902F40072009277
:100ED800009A9A6942F004029A619A6902F004023F
:100EE8000192019A9A6942F010029A619A6902F095
:100EF80010020292029A9A6942F008029A619B696A
:100F080003F008030393039B3023049303250595FB
:100F180004A9174801F068FA20230493059504A949
:100F2800144801F061FA0495059504A9124801F0E6
:100F38005BFA1248124B03600023436083608022EF
:100F4800C2604FF4807202614FF480624261836133
:100F58004FF40053C36101F095FB18B9074B2362A6
:100F68005C62A8E7FFF78CFEF8E700BF00240140A9
:100F78000008014000100140000C0140A0020020C0
:100F88000800024000B583B0124B5A6942F00102D2
:100F98005A615B6903F001030193019B002211462A
:100FA8000B2001F031FE0B2001F062FE00221146F9
:100FB8000E2001F029FE0E2001F05AFE00221146F3
:100FC8000F2001F021FE0F2001F052FE03B05DF862
:100FD80004FB00BF0010024008B50B480B4B036030
:100FE8000B4B436000238360C3604FF4804202616F
:100FF80043618361C361036201F05EFE00B908BD0D
:10100800FFF73EFEFBE700BFE4020020005400406B
:10101800A086010010B586B00023029303930493C1
:1010280005930268114B9A4201D006B010BD104CCE
:10103800A36943F00803A361A36903F008030093BD
:10104800009BC0230293122303930323059302A951
:10105800084801F0C9F9E36943F40013E361E3695F
:1010680003F400130193019BDFE700BF0054004025
:1010780000100240000C014008B50D480D4B0360FC
:101088004FF48273436000238360C360036143614C
:101098004FF400728261C3610362436283620A2370
:1010A800C36201F061FF00B908BDFFF7E9FDFBE786
:1010B800380300200038004010B586B000230293A2
:1010C8000393049305930268174B9A4201D006B024
:1010D80010BD03F5EC33DA6942F48042DA61DA696B
:1010E80002F480420092009A9A6942F008029A61DA
:1010F8009B6903F008030193019B4FF4204302937B
:101108000223039303230593084C02A9204601F008
:101118006BF94FF48043029300230393049302A9CD
:10112800204601F061F9D2E700380040000C014088
:1011380008B50A480A4B03604FF4E13343600023C3
:101148008360C36003610C2242618361C36102F062
:10115800DFF900B908BDFFF793FDFBE7180400208D
:101168000038014070B586B00023029303930493BE
:1011780005930268334B9A4201D006B070BD04460D
:1011880003F558439A6942F480429A619A6902F4D5
:1011980080420092009A9A6942F004029A619B691F
:1011A80003F004030193019B4FF40073029302239D
:1011B800039303230593244E02A9304601F014F942
:1011C8004FF48063029300250395049502A93046E5
:1011D80001F00AF91D481E4B0360456085608023B5
:1011E800C3600561456185614FF48053C36101F0B7
:1011F80049FA00BB154B63635C621648164B0360E3
:1012080010234360002383608022C260036143612E
:1012180083614FF48053C36101F034FA70B90D4B08
:1012280023635C6200221146252001F0EDFC252095
:1012380001F01EFDA1E7FFF723FDDBE7FFF720FD27
:10124800EDE700BF0038014000080140D40300204A
:101258005800024090030020440002407047FEE717
:10126800FEE7FEE7FEE770477047704708B500F0F5
:10127800DBFCFFF7DDFC08BD08B5024801F03CFBCC
:1012880008BD00BFA002002008B5024801F034FBE9
:1012980008BD00BF9003002008B5024801F02CFBF0
:1012A80008BD00BFD403002008B5024802F0BAF90F
:1012B80008BD00BF1804002008B5012001F0BEF9E0
:1012C80008BD08B5022001F0B9F908BD08B5042029
:1012D80001F0B4F908BD08B5082001F0AFF908BD60
:1012E80008B54FF48071074801F09AF920B14FF41E
:1012F800807001F0A3F908BD4FF4007001F09EF969
:10130800F9E700BF0010014082B00E4B9A6942F025
:1013180001029A619A6902F001020092009ADA6960
:1013280042F08052DA61DB6903F080530193019B3C
:10133800054A536823F0E06343F00073536002B03A
:10134800704700BF001002400000014008B510B10E
:10135800012808D008BD0A46074B1988074B1868AA
:1013680001F065F9F6E70A46054B1988054B186838
:1013780001F05DF9EEE700BF680400206C0400206E
:101388005C0400206004002070B586B08DF80F0062
:1013980000248DF81740FF238DF81630214620468B
:1013A800FFF7D4FF0D4D3226009601230C4A0DF1AC
:1013B8000F01286801F00AFF009601230DF11702BA
:1013C8000DF11601286801F001FF01212046FFF701
:1013D800BDFF9DF8170006B070BD00BF580400207F
:1013E8006404002030B587B08DF80F1040F020005D
:1013F8008DF8170000210846FFF7A8FF0B4C32258F
:10140800009501230A4A0DF11701206801F0DEFE5C
:101418002B4601220DF10F01206801F000FE012189
:101428000020FFF793FF012007B030BD58040020CB
:101438006404002008B509B140F00800034B19788E
:10144800014319700020FFF7CDFF08BD25020020D9
:101458002DE9F04184B00E4614468DF80F00104671
:1014680002F0C8F905462246FF2102F0E1F9002101
:101478000846FFF76BFF0F4F4FF03208CDF800809A
:1014880001230D4A0DF10F01386801F09FFECDF8D8
:101498000080234632462946386801F097FE01212C
:1014A8000020FFF753FF284602F0ACF904B0BDE86E
:1014B800F08100BF58040020640400202DE9F043A7
:1014C80085B006460F461546104602F093F90446C5
:1014D80046F020038DF80F3000210846FFF736FF4D
:1014E800DFF850804FF03209CDF800900123104A00
:1014F8000DF10F01D8F8000001F068FECDF800905A
:101508002B4622463946D8F8000001F05FFE01213B
:101518000020FFF71BFF2A4621463046FFF798FFB9
:10152800204602F06FF9012005B0BDE8F08300BF46
:101538006404002058040020052901D000207047C9
:1015480008B5CAB201461020FFF7B8FF08BD70B54C
:101558000F291FD10646002401250AE004EB840167
:1015680004F10A0005223144C0B2FFF7A7FF054085
:101578000134012CF2DD002408E0331904F10C00D9
:10158800997AC0B2FFF72EFF05400134032CF4DD31
:10159800284670BD0025FBE770B50E462C4908604B
:1015A8002C490A6004992C4A11602C4A1360059A48
:1015B8002B4B1A6000250135EDB2052D43D8294B78
:1015C800197841F002010020FFF70CFF00F0010438
:1015D8000A2000F03BFB01210846FFF703FF044007
:1015E8000F210420FFF7FEFE044000210520FFF72D
:1015F800F9FE04400A211120FFF7F4FE04400E21F1
:101608000620FFF7EFFE0440052E1FD80121B14048
:10161800C9B20139C9B20220FFF7E4FE0440114BF8
:10162800197841F003010020FFF7DCFE0440052192
:101638000D48FFF781FF04400F210C48FFF787FF93
:10164800002CB8D000E00024204670BD0024FBE741
:10165800580400206C040020600400206804002066
:101668005C0400202502002028000020180000202B
:1016780008B50A460146024802F0CCF808BD00BF8A
:101688000C0000207047000008B501210220FFF778
:10169800D1FE0A221249A020FFF710FF01210846B7
:1016A800FFF754FE08E010210720FFF79BFE0D4BC3
:1016B8001B7813F0200F08D10720FFF765FE094BB0
:1016C800187010F0100FF2D0EDE7FFF7DBFF2021C4
:1016D8000720FFF787FE00210120FFF737FE08BD2E
:1016E8000C0000206404002008B5436A9A6A12F0CE
:1016F800500F1ED19A6A42F400729A621A68926870
:1017080002F46022B2F5602F03D01846FFF792FA70
:1017180008BD1A7B002AF8D19A6A22F480729A626C
:101728009A6A12F4805FF0D19A6A42F001029A62D2
:10173800EBE71B6A1B6B9847EAE7704708B5406AF6
:10174800FFF7FBFF08BD704708B5406A836A43F09E
:1017580040038362C36A43F00403C362FFF7F3FFE5
:1017680008BD000030B482B00022019290F8242015
:10177800012A00F08B800346012280F824204A6861
:10178800062A29D80568686B02EB8202053A1F24ED
:10179800944020EA04000C6804FA02F202436A63E7
:1017A8000A68092A38D91D68E86802EB42021E3A1D
:1017B8000724944020EA04008C6804FA02F20243E9
:1017C800EA600A68103A012A34D90020002283F816
:1017D800242002B030BC70470C2A0ED80568286B4C
:1017E80002EB8202233A1F24944020EA04000C688A
:1017F80004FA02F202432A63D2E70568E86A02EBB8
:101808008202413A1F24944020EA04000C6804FA3A
:1018180002F20243EA62C3E71D68286902EB42024A
:101828000724944020EA04008C6804FA02F2024378
:101838002A61C6E71A681648824205D09A6A42F0B9
:1018480020029A620120C1E7906810F4000F1BD1B2
:10185800906840F4000090600A68102A01D00020C7
:10186800B4E70C4A12680C49A1FB0212920C02EB75
:1018780082025200019202E0019A013A0192019A11
:10188800002AF9D10020A1E700209FE70220A0E765
:10189800002401403400002083DE1B4330B583B0B0
:1018A8000023019303689A6812F0010F2DD10446B2
:1018B8009A6842F001029A60154B1B68154AA2FB10
:1018C80003239B0C0193019B1BB1019B013B0193DB
:1018D800F9E700F0B5F9054623689B6813F0010F96
:1018E80011D100F0ADF9431B022BF5D9A36A43F0DF
:1018F8001003A362E36A43F00103E362002384F860
:101908002430012002E0002000E0002003B030BDB8
:101918003400002083DE1B43F8B504460D46164606
:10192800036844498B4259D0434A934256D094F8AD
:101938002430012B7CD0012384F824302046FFF783
:10194800ADFF074600286ED1A36A23F4706323F025
:10195800010343F48073A3622268374B9A4244D050
:10196800A36A23F48013A362536813F4806F05D02D
:10197800A36A23F4405343F48053A362A36A13F485
:10198800805F48D0E36A23F00603E362002384F80B
:101998002430236A294A9A62236A294ADA62236A26
:1019A800284A1A6323686FF002021A602268936853
:1019B80043F480739360216833462A464C31206A89
:1019C80000F0ACFE23689A6802F46022B2F5602F3A
:1019D80024D09A6842F480129A6027E0154B5B681D
:1019E80013F4702FA3D0012720E0A3F580635B6870
:1019F80013F4702FB4D0A36A43F48013A3620D4B81
:101A08005B6813F4806FB9D0A36A23F4405343F49E
:101A18008053A362B2E70023E362B7E79A6842F40F
:101A2800A0029A6002E0002384F824303846F8BD0A
:101A38000227FBE70024014000280140F1160008B6
:101A4800451700085117000838B503689A6812F05E
:101A5800010F01D1002038BD04469A6822F0010226
:101A68009A6000F0EDF8054623689B6813F0010FB3
:101A78000ED000F0E5F8431B022BF5D9A36A43F01A
:101A88001003A362E36A43F00103E3620120E2E783
:101A98000020E0E7002800F08680F8B50446836A55
:101AA800002B50D02046FFF7CFFFA36A13F0100396
:101AB80073D1002871D1A26A22F4885222F002025E
:101AC80042F00202A2626268266838498E4240D01B
:101AD800E1690A43217B42EA4102A568B5F5807FA6
:101AE80002D0012D3CD01D46277D012F3BD07168C7
:101AF80021F46941294371602568AE682C49314059
:101B08001143A960A168B1F5807F01D0012902D1F4
:101B18002369013B1B052568E96A21F470010B4321
:101B2800EB6223689968234B0B409A422CD0A36A36
:101B380023F0120343F01003A362E36A43F00103A6
:101B4800E36201202EE0C36280F82430FFF7A8F991
:101B5800A8E7E169B1F5402FBBD14FF40021B8E700
:101B68004FF48075C0E731B9A169013945EA4131BF
:101B780041F40065BBE7A16A41F02001A162E16A76
:101B880041F00101E162B2E70023E362A36A23F0B6
:101B9800030343F00103A36204E0A36A43F01003C4
:101BA800A3620120F8BD0120704700BF003C01403E
:101BB800FDF7E1FFFE0E1FFF10B504460E4B187827
:101BC8004FF47A73B3FBF0F30C4A1068B0FBF3F0F0
:101BD80001F05CF868B90F2C01D901200AE0002255
:101BE80021464FF0FF3001F00FF8054B1C60002034
:101BF80000E0012010BD00BF2D00002034000020AF
:101C08003000002008B5074A136843F0100313603A
:101C1800032000F0E7FF0020FFF7CEFFFFF774FB7B
:101C2800002008BD00200240034A1168034B1B78BE
:101C38000B441360704700BF700400202D00002083
:101C4800014B1868704700BF7004002038B504467F
:101C5800FFF7F6FF0546B4F1FF3F02D0044B1B78AF
:101C68001C44FFF7EDFF401BA042FAD338BD00BF6C
:101C78002D00002082B0084B1B68084AA2FB0323F2
:101C88005B0A00FB03F3019300BF019B5A1E0192FC
:101C9800002BF9D102B0704734000020D34D6210F8
:101CA800002800F0F18170B582B00446036813F093
:101CB800010F2CD0AA4B5B6803F00C03042B1DD03A
:101CC800A74B5B6803F00C03082B12D06368B3F5CD
:101CD800803F41D0002B55D103F1804303F50433F5
:101CE8001A6822F480321A601A6822F480221A6074
:101CF80037E09B4B5B6813F4803FE7D0984B1B6839
:101D080013F4003F03D06368002B00F0BF81236801
:101D180013F0020F75D0924B5B6813F00C0F5FD075
:101D28008F4B5B6803F00C03082B54D02369002BFE
:101D380000F089808B4B01221A60FFF781FF05466E
:101D4800874B1B6813F0020F74D1FFF779FF401B14
:101D58000228F5D903209EE1814A136843F48033B1
:101D68001360636843B3FFF76BFF05467C4B1B6842
:101D780013F4003FCBD1FFF763FF401B6428F5D96C
:101D8800032088E1B3F5A02F09D0754B1A6822F417
:101D980080321A601A6822F480221A60E1E703F19F
:101DA8008043A3F53C331A6842F480221A601A680B
:101DB80042F480321A60D4E7FFF742FF0546684BC9
:101DC8001B6813F4003FA2D0FFF73AFF401B6428BA
:101DD800F5D903205FE1624B5B6813F4803FA5D11E
:101DE8005F4B1B6813F0020F03D02369012B40F0EF
:101DF8004F815B4A136823F0F803616943EAC10322
:101E08001360236813F0080F32D0A369002B45D064
:101E1800554B01221A60FFF713FF0546504B5B6ACA
:101E280013F0020F21D1FFF70BFF401B0228F5D951
:101E3800032030E14A4A136823F0F803616943EA52
:101E4800C1031360DDE7474B00221A60FFF7F8FE75
:101E58000546434B1B6813F0020FD2D0FFF7F0FE84
:101E6800401B0228F5D9032015E10120FFF702FFE6
:101E7800236813F0040F00F09780394BDB6913F0E7
:101E8800805F1DD1364BDA6942F08052DA61DB6936
:101E980003F080530193019B012512E0324B00228D
:101EA8001A60FFF7CDFE05462D4B5B6A13F0020F53
:101EB800DED0FFF7C5FE401B0228F5D90320EAE073
:101EC80000252A4B1B6813F4807F11D0E368012B8F
:101ED80022D0002B38D103F1804303F504331A6A6A
:101EE80022F001021A621A6A22F004021A6218E049
:101EF8001E4A136843F480731360FFF7A1FE064679
:101F08001A4B1B6813F4807FE0D1FFF799FE801B02
:101F18006428F5D90320BEE0114A136A43F001038F
:101F28001362E36873B3FFF78BFE06460C4B1B6A1C
:101F380013F0020F37D1FFF783FE801B41F288337D
:101F48009842F3D90320A6E0052B11D0044B1A6A56
:101F580022F001021A621A6A22F004021A62E0E709
:101F680000100240000042428004424200700040DB
:101F78004D4B1A6A42F004021A621A6A42F00102D0
:101F88001A62CEE7FFF75CFE0646474B1B6A13F062
:101F9800020F08D0FFF754FE801B41F288339842A5
:101FA800F3D9032077E0E5B9E369002B72D03E4A04
:101FB800526802F00C02082A56D0022B17D03B4B6D
:101FC80000221A60FFF73CFE0446374B1B6813F0EB
:101FD800007F47D0FFF734FE001B0228F5D9032005
:101FE80059E0314AD36923F08053D361DCE72F4BA2
:101FF80000221A60FFF724FE05462B4B1B6813F0DE
:10200800007F06D0FFF71CFE401B0228F5D90320ED
:1020180041E0236AB3F5803F1AD023494B6823F483
:102028007413226A606A024313434B601F4B0122F8
:102038001A60FFF705FE04461B4B1B6813F0007F70
:102048000ED1FFF7FDFD001B0228F5D9032022E081
:10205800154A536823F40033A1680B435360DCE747
:10206800002018E0002016E0012B16D00E4B5B680C
:1020780003F48031226A914211D103F47013626A29
:1020880093420ED1002006E001207047012002E0B3
:10209800012000E0002002B070BD0120FBE7012014
:1020A800F9E70120F7E700BF001002406000424254
:1020B80086B0164B0FCB0DF1180C0CE90F0040F24F
:1020C8000123ADF80430124B5B6803F00C02082AB8
:1020D80002D0104806B07047C3F38342624412F836
:1020E800102C13F4803F0CD0094B5B68C3F34043BA
:1020F800634413F8143C074800FB02F0B0FBF3F00C
:10210800E8E7054800FB02F0E4E700BFC053000819
:102118000010024000127A0000093D00002800F07B
:10212800A08070B50D460446524B1B6803F00703A8
:102138008B420BD24F4A136823F007030B431360FB
:10214800136803F007038B4240F08D80236813F077
:10215800020F17D013F0040F04D0474A536843F412
:10216800E0635360236813F0080F04D0424A5368B1
:1021780043F460535360404A536823F0F003A16866
:102188000B435360236813F0010F31D06368012BB0
:1021980020D0022B25D0384A126812F0020F64D0E2
:1021A80035494A6822F0030213434B60FFF748FDA4
:1021B8000646314B5B6803F00C036268B3EB820F91
:1021C80016D0FFF73DFD801B41F288339842F0D9C5
:1021D800032045E0284A126812F4003FE0D10120AC
:1021E8003EE0254A126812F0007FD9D1012037E07D
:1021F800204B1B6803F00703AB420AD91D4A13683A
:1022080023F007032B431360136803F00703AB4263
:102218002DD1236813F0040F06D0174A536823F40E
:10222800E063E1680B435360236813F0080F07D09D
:10223800114A536823F46053216943EAC103536088
:10224800FFF736FF0C4B5B68C3F303130B4AD35CF1
:10225800D8400B4B18600B4B1868FFF7ADFC0020FB
:1022680070BD012070470120FAE70120F8E701203E
:10227800F6E700BF0020024000100240D4530008D7
:102288003400002030000020014B1868704700BF60
:102298003400002008B5FFF7F7FF044B5B68C3F371
:1022A8000223034AD35CD84008BD00BF0010024097
:1022B800E453000808B5FFF7E7FF044B5B68C3F376
:1022C800C223034AD35CD84008BD00BF00100240B7
:1022D800E453000870B582B00446036813F0010F98
:1022E80034D03E4BDB6913F0805F47D13B4BDA6952
:1022F80042F08052DA61DB6903F080530193019B5D
:102308000125374B1B6813F4807F39D0334B1B6A88
:1023180013F4407311D0626802F440729A420CD0F0
:102328002E4A136A23F440702E4901260E600026B7
:102338000E60106213F0010F36D1284A136A23F495
:10234800407361680B431362002D3ED1236813F07C
:10235800020F06D0214A536823F44043A1680B4377
:102368005360236813F0100F34D01C4A536823F4C9
:10237800800361690B43536000202CE00025C0E70F
:10238800174A136843F480731360FFF759FC064635
:10239800134B1B6813F4807FB8D1FFF751FC801BE7
:1023A8006428F5D9032016E0FFF74AFC06460B4BD4
:1023B8001B6A13F0020FC0D1FFF742FC801B41F2E9
:1023C80088339842F3D9032005E0D36923F080537A
:1023D800D361BBE7002002B070BD00BF001002400F
:1023E8000070004040044242F0B482B000252C4600
:1023F800ABE0854FBB4210D007D9844FBB420CD00D
:1024080007F58037BB4208D013E0A7F58017BB4219
:1024180003D007F57027BB4207D18B68002B60D02B
:10242800012B59D04261082503E0A7F58017BB426C
:10243800F3D0FF2E57D88446FF2E57D8A200DCF8D9
:1024480000300F27974023EA070305FA02F21343E7
:10245800CCF800304B6813F0805F75D06C4B9A69EC
:1024680042F001029A619B6903F001030193019B09
:10247800A208971C674B53F827C004F003039F007A
:102488000F23BB402CEA030C634B984234D003F56E
:102498008063984200F0948003F58063984200F0CE
:1024A800918003F58063984200F08E8003F5806385
:1024B800984200F08B8003F5806398421AD0062377
:1024C8001BE0CD68B5E7CD680435B2E7CD680835BF
:1024D800AFE7CD680C35ACE702610825A9E7002510
:1024E800A7E70425A5E700F1040CA5E7A4F1080275
:1024F8009200A4E7052300E00023BB4043EA0C0355
:102508000232444F47F822304B6813F4803F5FD0C3
:10251800424A1368334313604B6813F4003F5DD09D
:102528003E4A5368334353604B6813F4801F5BD0B3
:102538003A4A9368334393604B6813F4001F59D0A9
:10254800364AD3681E43D66001340B6833FA04F266
:1025580056D00122A24003EA020632EA0303F3D16D
:102568004B68122B3FF645AF122B3FF662AF01A71F
:1025780057F823F023240008CB240008D5240008AA
:10258800E72400083B2400083B2400083B240008FB
:102598003B2400083B2400083B2400083B24000897
:1025A8003B2400083B2400083B2400083B24000887
:1025B8003B2400083B240008CF240008DB24000843
:1025C80001239AE7022398E7032396E7042394E775
:1025D800124A136823EA060313609DE70F4A5368FB
:1025E80023EA060353609FE70C4A936823EA06032D
:1025F8009360A1E7094AD36823EA0606D660A3E7F1
:1026080002B0F0BC704700BF00002210000031107B
:102618000010024000000140000801400004014091
:102628008368194201D001207047002070470AB121
:1026380001617047090401617047000008B5054B46
:102648005B69034200D108BD024B5861FEF784FA6A
:10265800F9E700BF0004014070B4066CC56B0124A3
:10266800B4406C60046863604368102B05D003684D
:1026780099600368DA6070BC704703689A60036801
:10268800D960F8E700283AD010B4024600681D4B1C
:10269800984229D81C4B03441C49A1FB03131B096E
:1026A8009B0013641A4BD363022382F8213001681C
:1026B80021F47F5121F03001536894682343D46892
:1026C8002343146923435469234394692343D469F6
:1026D80023430B43036000209063012382F82130D9
:1026E80082F8200010BC70470A4B03440749A1FB3D
:1026F80003131B099B001364074BD363D4E7012022
:10270800704700BF07040240F8FFFDBFCDCCCCCC1A
:1027180000000240F8FBFDBF0004024038B5044643
:1027280090F82000012831D0012084F8200094F886
:102738002100012804D0002384F82030022038BD6D
:10274800022084F821000020A0632568286820F072
:10275800010028602046FFF77FFFE36A5BB122682B
:10276800136843F00E0313602268136843F00103F3
:1027780013600020E3E72268136823F00403136062
:102788002268136843F00A031360EDE70220D6E7D6
:1027980008B590F82130022B03D00423836301206D
:1027A80008BD0268136823F00E03136002681368FB
:1027B80023F00103136003684B4A93424ED9783AD9
:1027C800934224D01432934230D0143293422FD003
:1027D800143293422FD0143293422FD014329342A2
:1027E8002FD0143293422FD002F5627293422ED02A
:1027F800143293422DD0143293422CD01432934287
:1028080002D04FF4803203E04FF4805200E00122FE
:10281800364B5A60012380F82130002380F820309D
:10282800436B002B5ED098470020B9E71022EFE7F2
:102838004FF48072ECE74FF48052E9E74FF48032AE
:10284800E6E74FF48012E3E74FF08072E0E70122F9
:10285800DEE71022DCE74FF48072D9E7244A93427E
:1028680024D01432934225D01432934224D0143207
:10287800934224D01432934224D01432934224D069
:102888001432934224D002F56272934223D0143258
:10289800934222D01432934221D01432934202D070
:1028A8004FF4803203E04FF4805200E00122114BD4
:1028B8005A60AFE71022FAE74FF48072F7E74FF457
:1028C8008052F4E74FF48032F1E74FF48012EEE7DC
:1028D8004FF08072EBE70122E9E71022E7E74FF4B7
:1028E8008072E4E700205BE78000024000040240B9
:1028F800080002400000024038B5C36B1A6804683B
:102908002568016C04238B40134200F09B8015F06E
:10291800040F00F09780236813F0200F03D1236879
:1029280023F0040323600368AA4A934246D9783AFD
:10293800934224D01432934228D01432934227D0A1
:102948001432934227D01432934227D01432934240
:1029580027D01432934227D002F56272934226D0D0
:102968001432934225D01432934224D01432934225
:1029780002D04FF4802203E04FF4804200E00422AA
:10298800954B5A60C36A03B1984738BD4022F7E7B0
:102998004FF48062F4E74FF48042F1E74FF480226D
:1029A800EEE74FF48002EBE74FF08062E8E704229D
:1029B800E6E74022E4E74FF48062E1E7874A934282
:1029C80024D01432934225D01432934224D01432A6
:1029D800934224D01432934224D01432934224D008
:1029E8001432934224D002F56272934223D01432F7
:1029F800934222D01432934221D01432934202D00F
:102A08004FF4802203E04FF4804200E00422744B2C
:102A18005A60B7E74022FAE74FF48062F7E74FF4CD
:102A28008042F4E74FF48022F1E74FF48002EEE7AA
:102A38004FF08062EBE70422E9E74022E7E74FF432
:102A48008062E4E702238B40134200F0A38015F074
:102A5800020F00F09F80236813F0200F06D123682F
:102A680023F00A032360012380F821300368594AC0
:102A780093424BD9783A934224D0143293422DD0C2
:102A8800143293422CD0143293422CD014329342F5
:102A98002CD0143293422CD0143293422CD002F50D
:102AA800627293422BD0143293422AD0143293424A
:102AB80029D01432934202D04FF4003203E04FF48D
:102AC800005200E00222444B5A60002380F8203074
:102AD800836A002B3FF459AF984756E72022F2E764
:102AE8004FF40072EFE74FF40052ECE74FF4003276
:102AF800E9E74FF40012E6E74FF00072E3E702223D
:102B0800E1E72022DFE74FF40072DCE7334A934223
:102B180024D01432934225D01432934224D0143254
:102B2800934224D01432934224D01432934224D0B6
:102B38001432934224D002F56272934223D01432A5
:102B4800934222D01432934221D01432934202D0BD
:102B58004FF4003203E04FF4005200E00222204B11
:102B68005A60B2E72022FAE74FF40072F7E74FF411
:102B78000052F4E74FF40032F1E74FF40012EEE7A9
:102B88004FF00072EBE70222E9E72022E7E74FF473
:102B98000072E4E7082303FA01F111423FF4F5AEAD
:102BA80015F0080F3FF4F1AE236823F00E032360FD
:102BB800026CC16B012303FA02F24A60836380F856
:102BC8002130002380F82030036B002B3FF4DDAE6A
:102BD8009847DAE6800002400004024008000240FC
:102BE80000000240074AD36823F4E0631B041B0C6F
:102BF800000200F4E060034343F0BF6343F4003392
:102C0800D360704700ED00E030B4174BDB68C3F3C6
:102C18000223C3F10704042C28BF04241D1D062D1C
:102C280018D9033B4FF0FF3505FA04F421EA0401F3
:102C3800994005FA03F322EA0303194300280BDB42
:102C48000901C9B200F1604000F5614080F8001345
:102C580030BC70470023E5E700F00F000901C9B256
:102C6800024B1954F4E700BF00ED00E014ED00E05A
:102C7800002807DB00F01F02400901239340024AA5
:102C880042F82030704700BF00E100E00138B0F1A1
:102C9800807F0AD2064B5860064AF02182F823103A
:102CA8000020986007221A6070470120704700BF13
:102CB80010E000E000ED00E0002800F0CC80F8B55E
:102CC800044690F83D30002B77D0242384F83D301B
:102CD8002268136823F0010313602268136843F421
:102CE800004313602268136823F400431360FFF75E
:102CF800D1FA62685A4B9A4264D85A4B98428CBFB0
:102D080000230123002B40F0A880574DA5FB003578
:102D1800AF0C2668716821F03F0141EA9541716066
:102D280021680B6A23F03F0365684D4A95424FD8E6
:102D38007A1C13430B622568E96921F44F4121F09D
:102D4800FF016368464A93424CD801385B00B0FBE8
:102D5800F3F0013040F6FC73184278D0C0F30B034F
:102D68000B43EB6121680B6823F0C003E269206A1A
:102D7800024313430B6021688B6823F4034323F059
:102D8800FF032269E068024313438B602168CB6824
:102D980023F0FF036269A06902431343CB602268F2
:102DA800136843F00103136000202064202384F893
:102DB8003D30206384F83E00F8BD80F83C30FEF7D3
:102DC80029F982E7294B98428CBF0023012399E710
:102DD8004FF4967202FB07F2254DA5FB02529209A9
:102DE8000132A6E7A268BAB9461E03EB4307B6FB51
:102DF800F7F60136C6F30B06B6FA86F6760946BB31
:102E0800C2B9421E03EB4303B2FBF3F20132C2F331
:102E18000B0242F40043A3E7461E03EB830707EBCC
:102E28008707B6FBF7F60136C6F30B06B6FA86F641
:102E38007609E4E7421E03EB830303EB8303B2FB4B
:102E4800F3F20132C2F30B0242F4404388E7042351
:102E580086E7012384E7012070470120ACE700BF23
:102E6800A08601007F841E0083DE1B43FF083D000F
:102E7800D34D62102DE9F04782B0054688461746C3
:102E88001E46FEF7DDFE0A9B1B1A03EB0609FEF73A
:102E9800D7FE82462A4B1B68C3F3CB3309FB03F3E7
:102EA80001932B689C6838EA04030CBF01240024B2
:102EB800BC4240D0B6F1FF3FF3D0FEF7C1FEA0EB15
:102EC8000A0048450AD2B9F1000F07D0019A02B1A9
:102ED8004A46019B013B01939146E2E72A68536801
:102EE80023F0E00353606B68B3F5827F0BD0AB6AC5
:102EF800B3F5005F14D0012385F85130002385F81D
:102F08005030032018E0AB68B3F5004F02D0B3F59A
:102F1800806FECD12A68136823F040031360E6E75A
:102F28002A68136823F4005313602A68136843F46B
:102F380000531360DFE7002002B0BDE8F08700BF50
:102F48003400002010B582B004460B4600920022DF
:102F58008021FFF78FFF08B902B010BD636D43F001
:102F6800200363650320F7E7002856D010B5044610
:102F7800436A33B94368B3F5827F05D00023C36140
:102F880002E00023036143610023A36294F85130F7
:102F9800002B3CD0022384F851302268136823F0B8
:102FA80040031360636803F48273A26802F4044266
:102FB8001343E26802F400621343226902F002023A
:102FC8001343626902F001021343A26902F400721A
:102FD8001343E26902F038021343226A02F08002C6
:102FE8001343A26A02F40052216813430B60638BF7
:102FF800226803F0040353602268D36923F4006352
:10300800D36100206065012384F8513010BD84F835
:1030180050302046FEF750F8BCE7012070472DE9F4
:10302800F04383B01D4690F85030012B00F0CC805F
:10303800044688469146012380F85030FEF700FE8A
:10304800074694F85160F6B2012E40F0AA80B8F114
:10305800000F00F0A780B9F1000F00F0A380032350
:1030680084F8513000236365C4F83080A4F83490A4
:10307800A4F83690A363A387E38763642364A368F3
:10308800B3F5004F1ED023681A6812F0400F03D121
:103098001A6842F040021A60E368B3F5006F1CD06A
:1030A800636813B1B9F1010F52D1226B236812780A
:1030B8001A73236B01332363E38E9BB2013B9BB2EC
:1030C800E38645E02268136823F040031360226812
:1030D800136843F480431360D5E7636813B1B9F10B
:1030E800010F16D1226B23681288DA60236B023332
:1030F8002363E38E9BB2013B9BB2E38609E0FEF7B4
:103108009FFDC01BA84202D3B5F1FF3F54D1002D4B
:1031180054D0E38E9BB2002B2ED023689A6812F00D
:10312800020FECD0226B1288DA60236B0233236320
:10313800E38E9BB2013B9BB2E386EAE7FEF780FD94
:10314800C01BA84202D3B5F1FF3F39D1002D39D0B9
:10315800E38E9BB283B123689A6812F0020FEDD018
:10316800226B12781A73236B01332363E28E92B2B7
:10317800013A92B2E286EBE73A4629462046FFF743
:10318800E1FE08B120236365A36833B9019323687E
:10319800DA6801929B680193019B636D13B900265D
:1031A80000E00226012384F85130002384F85030CF
:1031B800304603B0BDE8F0830326F3E70326F1E7C2
:1031C8000326EFE70326EDE70226F1E72DE9F043B2
:1031D80083B01F460A9D90F85030012B00F01081F3
:1031E800044688469146012380F85030FEF728FDB2
:1031F800064694F85130DBB26268012B0AD0B2F56A
:10320800827F40F0E380A268002A40F0E980042B26
:1032180040F0E880B8F1000F00F0E680B9F1000F47
:1032280000F0E480002F00F0E38094F85130DBB226
:10323800042B02D0052384F8513000236365C4F8B9
:103248003890E787A787C4F83080E786A786236485
:10325800636423681A6812F0400F03D11A6842F0B9
:1032680040021A60E368B3F5006F11D063680BB1D0
:10327800012F0BD1226B236812781A73236B013349
:103288002363E38E9BB2013B9BB2E38601276BE08D
:1032980063680BB1012F0BD1226B23681288DA60A7
:1032A800236B02332363E38E9BB2013B9BB2E3861D
:1032B80001271CE023689A6812F0010F0ED0E28FF4
:1032C80092B25AB1DA68A36B1A80A36B0233A36374
:1032D800E38F9BB2013B9BB2E3870127FEF7B0FC6B
:1032E800801BA84203D3B5F1FF3F40F08380E38EF3
:1032F8009BB21BB9E38F9BB2002B53D023689A680B
:1033080012F0020FD6D0E28E92B2002AD2D0002F4D
:10331800D0D0226B1288DA60236B02332363E38EEA
:103328009BB2013B9BB2E3860027C3E723689A68F8
:1033380012F0010F0ED0E28F92B25AB1DA68A36B85
:103348001A70A36B0133A363E38F9BB2013B9BB25B
:10335800E3870127FEF774FC831BAB4202D3B5F168
:10336800FF3F49D1002D49D0E38E9BB213B9E38FBB
:103378009BB2BBB123689A6812F0020FD6D0E28ED6
:1033880092B2002AD2D0002FD0D0226B12781A73B2
:10339800236B01332363E38E9BB2013B9BB2E3862D
:1033A8000027C3E7324629462046FFF7CBFD48B938
:1033B800A36863B901932368DA6801929B68019353
:1033C800019B04E020236365012000E00220012323
:1033D80084F85130002384F8503003B0BDE8F083FE
:1033E8000220F4E70220F2E70120F0E70120EEE7EF
:1033F8000120ECE70320EAE70320E8E70320E6E7FB
:103408000220EAE70268D36823F49073D360026865
:10341800536923F001035361202380F83A30704741
:1034280090F83930DBB2212B01D002207047836835
:10343800B3F5805F17D0036A5A1C02621A780368D2
:103448005A60C38C9BB2013B9BB2C3844BB90268E0
:10345800D36823F08003D3600268D36843F0400345
:10346800D360002070470369002BE4D1036A1B88EE
:103478000268C3F308035360036A02330362E0E798
:1034880010B504460268136923F44053C1680B431E
:10349800136183680269134342691A430168CB6860
:1034A80023F4B05323F00C031343CB600268536931
:1034B80023F4407381690B4353610268124B9A42AB
:1034C8001FD0FEF7E7FE00EB800303EB830362687F
:1034D8009200B3FBF2F20D48A0FB023149096423C4
:1034E80003FB11231B013233A0FB03235B0903F009
:1034F800F00202EB011203F00F03216813448B6002
:1035080010BDFEF7D7FEDEE7003801401F85EB51FE
:1035180058B310B5044690F839300BB3242384F817
:1035280039302268D36823F40053D3602046FFF76C
:10353800A7FF2268136923F4904313612268536933
:1035480023F02A0353612268D36843F40053D360FD
:103558000020E063202384F8393084F83A3010BD25
:1035680080F83830FDF7FEFDD8E701207047704736
:1035780008B50168CA6822F04002CA60202280F8B3
:103588003920FFF7F4FF002008BD704708B590F810
:103598003A30DBB2222B41D18368B3F5805F14D077
:1035A800826AB3F5805F02D0E3B90369D3B90368CF
:1035B8005B681370836A01338362C38D9BB2013BDE
:1035C8009BB2C385A3B1002008BD0269002AE7D1D8
:1035D800826A03685B68C3F308031380836A023353
:1035E8008362EAE703685B6803F07F031370E1E72F
:1035F8000268D36823F02003D3600268D36823F4F9
:103608008073D3600268536923F001035361202358
:1036180080F83A30FFF7B9FF0020D5E70220D3E75A
:103628007047000010B5044602681368D1685269F3
:1036380013F00F0005D113F0200F02D011F0200F66
:1036480013D128B112F0010213D111F4907F10D1D7
:1036580013F0800F02D011F0800F6CD113F0400FDF
:1036680002D011F0400F6AD110BD2046FFF78EFF3F
:10367800FAE713F0010F06D011F4807F03D0E06B56
:1036880040F00100E06313F0040F04D01AB1E06BBE
:1036980040F00200E06313F0020F04D01AB1E06BAF
:1036A80040F00400E06313F0080F07D011F0200F7A
:1036B80000D11AB1E26B42F00802E263E26B002A21
:1036C800D2D013F0200F02D011F0200F21D123689F
:1036D8005B6903F04003E26B12F0080F00D123B3DB
:1036E8002046FFF78FFE23685A6912F0400F18D062
:1036F8005A6922F040025A61636B73B1124A5A63E5
:10370800606BFFF745F80028AED0606B436B9847B5
:10371800AAE72046FFF73AFFD9E72046FFF780FFE0
:10372800A2E72046FFF77CFF9EE72046FFF778FFD9
:103738000023E36398E72046FFF772FE94E72046EC
:10374800FFF716FF90E700BF5537000808B5406A35
:103758000023C385C384FFF763FF08BD70470000DB
:10376800002103E00B4B5B58435004310A480B4BD4
:1037780042189A42F6D30A4A02E0002342F8043B70
:10378800084B9A42F9D3FFF7E9FF00F00FF8FDF76D
:1037980023FA704720560008000000200802002085
:1037A8000802002084040020FEE7000070B500260F
:1037B8000C4D0D4C641BA410A64209D101F0EEFD7E
:1037C80000260A4D0A4C641BA410A64205D170BD00
:1037D80055F8043B98470136EEE755F8043B9847FF
:1037E8000136F2E71856000818560008185600085F
:1037F8001C560008024B0146186800F06DB800BF5F
:1038080038000020024B0146186800F019B800BFC4
:10381800380000200A44914200F1FF3300D170477C
:1038280010B511F8014B914203F8014FF9D110BDC1
:1038380003460244934200D1704703F8011BF9E79D
:1038480038B50546002943D051F8043C0C1F002B1D
:10385800B8BFE41801F04AFA1E4A1368104633B993
:10386800636014602846BDE8384001F045BAA342B9
:103878000AD921686218934201BF1A685B68521816
:10388800226063600460EDE71A465B680BB1A342EF
:10389800FAD911685018A0420BD120680144501879
:1038A80083421160DED118685B680144116053607F
:1038B800D8E702D90C232B60D4E7206821188B4263
:1038C80001BF19685B680918216063605460C9E723
:1038D80038BD00BF28020020F8B5CD1C25F003052F
:1038E80008350C2D38BF0C25002D064601DBA942F2
:1038F80003D90C2333600020F8BD01F0F7F9214902
:103908000A6814469CB9204F3B6823B921463046C3
:1039180000F076FB38602946304600F071FB431C06
:1039280023D10C233046336001F0E6F9E3E723683E
:103938005B1B17D40B2B03D923601C44256004E0C0
:103948006368A2420CBF0B605360304601F0D4F9A3
:1039580004F10B00231D20F00700C21ACCD01B1A5B
:10396800A350C9E722466468CCE7C41C24F00304CA
:10397800A042E3D0211A304600F042FB0130DDD1ED
:10398800CFE700BF280200202C020020002B2DE9E1
:10399800F0471F46BBBF03F100431F4600232D23FA
:1039A80088B01446129A109D1370149BDDF84CA031
:1039B80023F02008B8F1460F05D0B8F1450F00D123
:1039C8000135022300E0032307AA049206AACDE9E1
:1039D80002A2CDE9003522463B4600F0B1FBB8F122
:1039E800470F064602D1119BDB0722D5B8F1460FD7
:1039F80006EB050910D13378302B0AD100220023B9
:103A080020463946FDF738F818B9C5F10105CAF856
:103A18000050DAF800309944002200232046394645
:103A2800FDF72AF808B1CDF81C903022079B4B45CA
:103A380007D33046079B159A9B1B136008B0BDE857
:103A4800F087591C07911A70F0E70346F7B500296B
:103A580003F8022BB6BF2D222B22494209294270B6
:103A68002BDD0DF10704A4460A2791FBF7F60A4659
:103A7800A64607FB1615632A05F13005314604F101
:103A8800FF340EF8015CF0DC3031AEF1020504F8C9
:103A9800011C2946441C61450AD30DF10902A2EB19
:103AA8000E02654588BF00221344181A03B0F0BD02
:103AB80011F8012B04F8012FEDE730233031837022
:103AC800C170031DF1E700002DE9F04F91B00C46DD
:103AD800DDF8688016461F46054601F003F90368BD
:103AE80018460993FCF79CFB00230E93D8F8003086
:103AF8000A90073323F0070303F1080294F818909B
:103B0800D4F800B0C8F80020D3E90023C4E9122390
:103B1800D4E9128A2AF000430B934FF0FF32404653
:103B28009C4B0B99FCF7DAFF70BB4FF0FF32404615
:103B3800984B0B99FCF7B4FF30BB0022002340469A
:103B48005146FCF7A3FF10B12D2384F84330924B64
:103B58009248B9F1470F94BF9846804603234FF027
:103B6800000A23612BF004032360334621462846CC
:103B780000970FAA00F0D4F9013040F090804FF080
:103B8800FF3011B0BDE8F08F4246534640465146DB
:103B9800FCF7A4FF48B1BAF1000FB8BF2D23804845
:103BA800B8BF84F843307F4BD3E7636809F0DF017F
:103BB8005A1C42D106236360002206920EAACDE960
:103BC80004920DAA4BF4806303920DF13302CDE900
:103BD80001322360636842460093284653460B919E
:103BE800FFF7D4FE0B99804647290D9908D1C81CC8
:103BF80002DB6368994240DDA9F102095FFA89F99D
:103C0800B9F1650F1FD84A46013904F150000D91EA
:103C1800FFF71BFF0E9A82461318012A236102DC64
:103C28002268D20701D5013323619DF83330002B78
:103C38009BD02D2384F8433097E74729BCD1002B2C
:103C4800BAD10123B7E7B9F1660F18D10029636823
:103C58000BDD216113B92268D00702D501330B446B
:103C680023614FF0000AA165DFE713B92268D20784
:103C780001D50233F4E70123F2E74FF067090E9B01
:103C8800994205DB23682161D807EAD54B1CE7E791
:103C98000029CCBF0122C1F102021344E0E72368E6
:103CA8005A0507D42369424631462846B8470130A9
:103CB8002BD164E7B9F1650F40F2DD80D4E9120138
:103CC80000220023FCF7D8FE002833D00123314618
:103CD8002846354AB84701303FF451AFDDE90D2396
:103CE8009A4202DB2368D8070FD5DDE9092331465C
:103CF8002846B84701303FF442AF4FF0000804F1BE
:103D08001A090E9B013B434509DC23689B0700F118
:103D18000281E0680F9B9842B8BF184631E701233B
:103D28004A4631462846B84701303FF428AF08F1E3
:103D38000108E6E70D9B002B38DC012331462846B5
:103D4800194AB84701303FF41AAFDDE90D23134390
:103D580002D12368D907D8D5DDE909233146284699
:103D6800B84701303FF40BAF4FF0000904F11A0ACD
:103D78000D9B5B424B4501DC0E9B94E701235246A9
:103D880031462846B84701303FF4F9AE09F1010938
:103D9800EEE700BFFFFFEF7FEC530008F053000889
:103DA800F8530008F4530008FC5300080E9AA36D5A
:103DB8009A42A8BF1A46002A914637DC4FF0000BFA
:103DC80029EAE97904F11A02D4F858A0AAEB090300
:103DD8005B4533DCDDE90D239A423BDB2368DA07D8
:103DE80038D40E9A0D99A2EB0A03A2EB0109994562
:103DF800A8BF9946B9F1000F34DC4FF0000829EA52
:103E0800E97904F11A0ADDE90D239B1AA3EB0903EA
:103E180043457FF77AAF0123524631462846B847D3
:103E280001303FF4ACAE08F10108ECE71346314627
:103E380042462846B8470130C0D1A0E601233146A2
:103E480028460B92B84701303FF499AE0B9A0BF114
:103E5800010BB9E73146DDE909232846B8470130A7
:103E6800BFD18CE64B463146284608EB0A02B847D4
:103E78000130C2D183E60E9A012A01DCDB0737D56F
:103E88000123424631462846B84701303FF477AE11
:103E9800DDE9092331462846B84701303FF46FAEC3
:103EA800D4E9120100220023FCF7E6FDD8B90E9BE5
:103EB80008F10102013B31462846B84701300ED1CE
:103EC8005DE601234A4631462846B84701303FF4AB
:103ED80056AE08F101080E9B013B4345F1DC534601
:103EE80004F15002E0E64FF0000804F11A09F2E785
:103EF80001234246DFE701234A4631462846B847B0
:103F080001303FF43CAE08F10108E3680F995B1AF1
:103F18004345F0DCFDE64FF0000804F11909F4E729
:103F28002DE9F047164699468A680B690746934279
:103F3800B8BF1346336091F843200C46DDF8208063
:103F48000AB1013333602368990642BF33680233EC
:103F58003360256815F0060506D104F1190AE368EF
:103F680032689B1AAB4228DC94F84320131E22685F
:103F780018BF012392062DD44946384604F143025E
:103F8800C047013020D02368E56803F00603042BFE
:103F980018BF002532684FF00006A36808BFAD1AA5
:103FA800226908BF25EAE5759342C4BF9B1AED183C
:103FB8001A34B5421AD1002008E001235246494676
:103FC8003846C047013003D14FF0FF30BDE8F087D5
:103FD8000135C4E73020E11881F843005A1C94F8F1
:103FE80045102244023382F84310C5E701232246D4
:103FF80049463846C0470130E6D00136D9E70000C7
:1040080038B50023054D044608462B6001F0B8F981
:10401800431C02D12B6803B1236038BD740400200F
:104028002DE9F74F03690C690746A342C0F2838064
:10403800013C00F1140501F1140805EB8403019318
:1040480058F8243055F8242001339A42B2FBF3F68D
:104058004FEA840B08EB840932D34FF0000E404638
:10406800AC46F24650F8042B93B206FB03E3120C5D
:104078004FEA134E06FB02E29BB2AAEB0303DCF8FD
:1040880000A04FEA124E1FFA8AFA53441FFA82FA26
:10409800DCF800208145CAEB124202EB23429BB2B6
:1040A80043EA02434FEA224A4CF8043BDAD255F875
:1040B8000B302BB9019B043B9D421A462FD33C6120
:1040C800384601F048F8002825DB28464FF0000C58
:1040D800013658F8041BD0F800E08BB2ACEB0303B0
:1040E8001FFA8EF213440A0CC2EB1E4202EB234263
:1040F8009BB243EA0243C1454FEA224C40F8043BD5
:10410800E7D255F8242005EB840322B9043B9D42ED
:104118001A460AD33C61304603B0BDE8F08F1268F6
:10412800043B002ACBD1013CC6E71268043B002AB5
:10413800F0D1013CEBE70020EEE7000000000000B2
:104148002DE9F04F16461F46446A99B00546CDE959
:104158000467DDF894803CB91020FFF74BFBC0E9F9
:10416800014468620460C4606B6A196851B15A6896
:10417800012393404A608B60284600F0F7FD002237
:104188006B6A1A603B1EAFBF0023012223F0004375
:104198000593A8BFC8F80030DDF81490AC4BB8BF41
:1041A800C8F8002033EA090319D142F20F73249AA0
:1041B8001360C9F31303334300F06C85269B53B98E
:1041C800A44B23E0A44B03930833269A1360039867
:1041D80019B0BDE8F08F9F4B03930333F5E7DDE992
:1041E8000434CDE90C34DDE90C0100220023FCF78E
:1041F80043FC804660B10123249A1360269B002B60
:1042080000F04585954B269A1360013B0393DEE742
:1042180016AB019317AB00932846DDE90C2301F098
:1042280031F8C9F30A548346002C7FD0DDE90C012C
:104238000D9BA4F2FF34C3F3130343F07F5141F401
:104248004011CDF84C800022854BFBF7F5FF7AA38F
:10425800D3E90023FCF7A8F979A3D3E90023FBF7F6
:10426800EDFF064620460F46FCF734F976A3D3E95E
:104278000023FCF799F902460B4630463946FBF70E
:10428800DDFF06460F46FCF73FFC0022824600236E
:1042980030463946FCF7FAFB48B15046FCF71AF9A4
:1042A80032463B46FCF7E8FB08B90AF1FF3ABAF197
:1042B800160F58D8DDE90C016A4B03EBCA03D3E9A2
:1042C8000023FCF7E3FB00284FD000230AF1FF3A54
:1042D8000F93169B1C1B631E099349BFC4F101036E
:1042E80000230693002354BF06930993BAF1000FE5
:1042F8003DDB099BCDF838A05344099300230A936A
:10430800229B092B00F2B480052BC4BF043B2293E7
:10431800229BC8BF0024A3F10203D8BF0124032BAA
:1043280000F2B280DFE803F02D7C7AA2DDE91643C3
:104338001C4404F23243202BC3BFC3F1400304F2F0
:10434800124009FA03F3C3F12003C6BF26FA00F0AE
:10435800184306FA03F0FCF7ADF80123A1F1F87150
:10436800013C13936FE70123B2E70F90B1E7069B77
:10437800A3EB0A030693CAF100030A9300230E93E2
:10438800BEE700230B93239B002B00F380804FF0A4
:1043980001094B46CDF82090CDF88C9000226E6A2A
:1043A8007260042202F114009842716875D9284697
:1043B80000F0A8FC6B6A30601B680393089B0E2B07
:1043C80000F2EC80002C00F0E980BAF1000F78DDF3
:1043D800244A0AF00F0302EBC3031AF4807FD3E9DF
:1043E8000034CDE910344FEA2A145AD0DDE90C0123
:1043F8001D4B0327D3E90823FCF700FACDE9040194
:1044080004F00F04184E002C4DD1DDE91023DDE92E
:104418000401FCF7F3F9CDE904016CE00123B1E7ED
:1044280000230B93239B0AEB030909F10103012BDA
:104438000893B8BF0123B1E761436F63A787D23FF1
:10444800B3C8608B288AC63FFB799F501344D33F7B
:104458000000F07F07540008FE530008FD530008D1
:104468000000F83F38540008105400080123D8E72A
:10447800012400230B9422934FF0FF3900221223CA
:10448800CDF82090239289E701230B93F4E7DDF818
:104498008C904B46CDF8209080E701317160520036
:1044A80080E70227AEE7E10708D5DDE91001D6E984
:1044B8000023FCF779F8CDE91001013764100836BC
:1044C800A1E700F0A580DDE90C01CAF10004A34BC7
:1044D80004F00F0203EBC203D3E90023FCF764F8EE
:1044E80002270023CDE904019D4E2411002C40F041
:1044F8008480002B8FD10F9B002B00F08B80DDE98F
:104508000434CDE91034DDE910010022954BFCF7A5
:10451800BDFA00287ED0089B002B7BD0B9F1000F94
:1045280038DDDDE9100100228F4BFCF73DF84C46E1
:10453800CDE904010AF1FF3801373846FBF7CAFF15
:10454800DDE90423FCF730F80022884BFBF776FE00
:10455800A1F15076CDE910011196002C5DD1DDE96D
:1045680004010022824BFBF767FE02460B46CDE9A9
:1045780004233346109AFCF7A7FA002840F09782E4
:10458800DDE90401109A06F10043FCF77FFA0028E0
:1045980040F08B82DDE90C34CDE90434179B002B05
:1045A800C0F25181BAF10E0F00F34D816B4B03EB52
:1045B800CA03D3E90034CDE90634239B002B80F2EB
:1045C800DB80089B002B00F3D78040F06D82DDE98B
:1045D80006010022664BFBF7E7FFDDE90423FCF741
:1045E80069FA089C2646002840F043823123039F3D
:1045F8000AF1010A07F8013B3FE2E20705D5D6E9CF
:104608000023FBF7D1FF01230137641008366DE75B
:10461800022770E7D046089C8FE703994F4B214447
:1046280012910B9903EBC403DDE9106753E90223E8
:10463800002946D000204F49FCF7E0F83B463246B7
:10464800FBF7FAFDCDE91001039FDDE90401FCF752
:104658005BFA0446FBF73EFF02460B46DDE9040120
:10466800FBF7EAFD02460B463034CDE90423DDE9C9
:10467800102307F8014BFCF709FA002865D1DDE99A
:10468800042300203749FBF7D7FDDDE91023FCF7A9
:10469800FDF9002840F0B680129B9F423FF47AAFA4
:1046A800DDE910010022304BFBF77EFF0022CDE947
:1046B8001001DDE904012C4BFBF776FFCDE904017D
:1046C800C3E730463946FBF76FFF129BCDE910016F
:1046D800039C1493DDE90401FCF716FA1590FBF727
:1046E800F9FE02460B46DDE90401FBF7A5FD159B23
:1046F8000646303304F8013B129B0F469C424FF0AC
:10470800000224D1DDE910011A4BFBF797FD0246A0
:104718000B4630463946FCF7D7F9002871D1DDE958
:10472800102300201349FBF787FD02460B4630464D
:104738003946FCF7ABF900283FF42CAF149F7B1ED9
:10474800149317F8013C302BF8D0C24649E0064BC9
:10475800FBF72AFFCDE90401BCE700BF3854000885
:10476800105400080000F03F0000244000001C40E6
:10477800000014400000E03F039FDDE90489DDE903
:10478800062340464946FCF739F8FCF7BDF90446CC
:10479800FBF7A0FEDDE90623FBF706FF04F1300670
:1047A8000B46024649464046FBF746FD07F8016BB3
:1047B800039E089BBE1BB34238D102460B46FBF74B
:1047C8003DFDDDE9062380468946FCF77DF958BBA7
:1047D800DDE9062340464946FCF74EF908B1E107F2
:1047E80022D42846594600F0C1FA00233B70249B86
:1047F8000AF101001860269B002B3FF4E8AC1F600B
:10480800E5E427463B461F4613F8012D392A07D110
:10481800039A9A42F7D13022039908F101080A70E5
:104828001A7801321A7090E7D046EBE70022A14BC4
:10483800FBF7BAFE0022002380468946FCF71CF9E4
:1048480000289CD0CDE70B9A002A00F0CD80229A50
:10485800012A00F3AF80139A002A00F0A78003F220
:1048680033430A9C069F069A01211A440692099A24
:1048780028461A44099200F01CFB0646002F0CDD5E
:10488800099B002B09DDBB42A8BF3B46069AFF1ACD
:10489800D21A0692099AD31A09930A9BF3B10B9B71
:1048A800002B00F0A580002C10DD3146224628465A
:1048B80000F0A4FB5A4601460646284600F002FBD3
:1048C80080465946284600F051FAC3460A9B1A1BEF
:1048D80004D05946284600F091FB8346012128461A
:1048E80000F0E7FA0E9B0446002B40F383801A463B
:1048F8000146284600F082FB229B0446012B7CDD02
:104908004FF00008236904EB8303186900F083FA69
:10491800C0F12000099B184410F01F0000F08E80A1
:10492800C0F12003042B40F38780C0F11C00069BD4
:10493800074403440693099B03440993069B002BF1
:1049480005DD59461A46284600F0A6FB8346099B12
:10495800002B05DD21461A46284600F09DFB04463B
:104968000F9B002B6CD02146584600F0F4FB002822
:1049780066DA002359460A22284600F00EFA0B9BF5
:1049880083460AF1FF3A002B00F08B813146002361
:104998000A22284600F001FAB9F1000F064600F392
:1049A8009180229B022B40F38D8051E0169BC3F12E
:1049B800360356E7089B5C1E0A9BA342B7BF0A9BB7
:1049C8001C1BE21A0E9BBEBF0A949B180E93089BF1
:1049D800B8BF0024002BBBBF069B089A069F9F1AEE
:1049E800ACBF089B00233EE70A9C069F0B9E45E749
:1049F8000A9A6EE7229B012B19DC049BBBB9059B25
:104A0800C3F313039BB9059B23F000431B0D1B0540
:104A180083B14FF00108069B01330693099B0133CC
:104A280009930E9B002B7FF46DAF012072E74FF0C6
:104A38000008F6E79846F4E780D018461C3076E779
:104A4800089B002B38DC229B022B35DDDDF82090FB
:104A5800B9F1000F0DD121464B460522284600F03A
:104A68009CF901460446584600F075FB00283FF7BC
:104A7800BDAD239B039F6FEA030A4FF00008214650
:104A8800284600F073F9002E3FF4ABAEB8F1000FE2
:104A980005D0B04503D04146284600F067F93146B5
:104AA800284600F063F99CE600242646E1E7C24662
:104AB80026469BE5000024400B9BDDF82090002B48
:104AC80000F0F680002F05DD31463A46284600F012
:104AD800E3FA0646B8F1000F55D07168284600F091
:104AE80011F90746326906F10C01023292000C30C6
:104AF800FEF790FE01223946284600F0CDFAB0466E
:104B08000646039B01330893039B4B440A93049B7B
:104B180003F001030993089B2146013B584604937F
:104B2800FFF77EFA034641463033069058460B930A
:104B380000F011FB324681462146284600F026FB4C
:104B4800C26807460B9B02BB0146584600F003FBB0
:104B580002460B9B39462846CDE90B3200F006F990
:104B6800229B0C9A089F43EA0201099B0B430B9B6B
:104B78000DD1392B29D0B9F1000F01DD069B313356
:104B8800049A13707BE73046B9E70122E2E7B9F1EE
:104B9800000F06DB229941EA0909099959EA01013E
:104BA80020D1002AECDD594601222846089300F05E
:104BB80073FA2146834600F0CEFA0028089B02DCEF
:104BC800DED1DA07DCD5392BD8D13923049A137012
:104BD8003B461F4617F8012C013B392A50D00132B9
:104BE8001A704CE7002A03DD392BEED00133C7E7F2
:104BF800089A0A9902F8013C8A422AD059460023A9
:104C08000A22284600F0C9F8B04583464FF0000351
:104C18004FF00A024146284607D100F0BEF8804608
:104C28000646089B0133089375E700F0B6F831464D
:104C3800804600230A22284600F0AFF80646F0E72F
:104C4800B9F1000FCCBF4F4601274FF00008039A77
:104C58001744594601222846089300F01DFA2146B8
:104C6800834600F078FA0028B2DC02D1089BDB0703
:104C7800AED43B461F4613F8012D302AFAD0FEE683
:104C8800039A9A42A5D131230AF1010A79E7134B15
:104C9800FFF7BCBA269B002B7FF494AA104BFFF7B2
:104CA800B5BAB9F1000F03DC229B022B3FF7D0AE57
:104CB800039F21465846FFF7B3F9039A00F13003E2
:104CC80007F8013BBA1A9145BADD594600230A2272
:104CD800284600F062F88346EBE700BFFC53000863
:104CE800FE530008004870478C010020014800F07E
:104CF80026BB00BF7C040020014800F021BB00BF98
:104D08007C04002070B5466A04460D463EB9102062
:104D1800FEF770FDC0E9016660620660C660666AFB
:104D2800F36883B1636ADB6853F82500B8B90121D9
:104D380001FA05F6721D2046920000F0F2FA60B101
:104D4800C0E901560EE021220421204600F0E9FACC
:104D5800636AF060DB68002BE4D1002070BD026854
:104D680043F825200023C0E90333F7E770B5466A06
:104D780005460C463EB91020FEF73CFDC0E9016629
:104D880068620660C6603CB16B6A6268DB6853F8AB
:104D98002210216043F8224070BD2DE9F041984669
:104DA8000C4600230E69074601F11400056801331B
:104DB800A9B202FB01812D0C4FEA114C02FB05C57B
:104DC80089B201EB05419E424FEA154840F8041BA1
:104DD800ECDCB8F1000F1BD0A368B34212DC6168A9
:104DE80038460131FFF78EFF0546226904F10C01B0
:104DF800023292000C30FEF70DFD21463846FFF7CF
:104E0800B5FF2C4604EB86030136C3F814802661EF
:104E18002046BDE8F081020C12040346CAB9030417
:104E2800102013F07F4F04BF1B02083013F0704F9F
:104E380004BF1B01043013F0404F04BF9B00023035
:104E4800002B05DB13F0804F00F1010008BF202084
:104E580070470020E5E70368024613F007000BD00F
:104E6800D90722D4980749BF5B089B080120136023
:104E78005CBF02201360704799B209B910201B0C5F
:104E880013F0FF0F04BF1B0A0830190704BF1B09E2
:104E98000430990704BF9B080230D90703D45B0884
:104EA80000F1010003D013607047002070472020F4
:104EB800704710B50C460121FFF724FF0122446119
:104EC800026110BD2DE9F04F15460A692B690C46A1
:104ED8009A42BEBF0B462C461D462769D5F810904E
:104EE800A368616807EB0906B342B8BF013185B012
:104EF800FFF708FF00F114010B46002201EB8608BA
:104F080043451DD304F1140305F1140203EB87078D
:104F180002EB890302933B1B153B23F00303043385
:104F280004F11505AF4238BF04230193029B039295
:104F3800934208D8002E5ADC066105B0BDE8F08F10
:104F480043F8042BDCE7B2F800A0BAF1000F24D034
:104F580089464FF0000C04F1140E5EF8045BD9F892
:104F680000B0ABB21FFA8BFB0AFB03B34FEA154B39
:104F7800D9F8005063444FEA154C0AFB0BC505EB02
:104F880013459BB243EA054377454FEA154C49F868
:104F9800043BE2D8019B41F803C0039B0432B3F8F9
:104FA8000290B9F1000F20D08E464FF0000A0B682E
:104FB80004F1140CBCF80050BEF802B09BB209FB17
:104FC80005B5AA4443EA0A434EF8043B5CF8043B9F
:104FD800BEF800501B0C09FB0353674503EB1A434B
:104FE8004FEA134AE6D8019D4B5104319EE758F821
:104FF800043D002BA0D1013E9CE700002DE9F843B9
:10500800154612F0030206460F4607D0214C013A16
:10501800002354F82220FFF7C0FE0746AD1035D014
:10502800746A3CB91020FEF7E5FBC0E901447062E0
:105038000460C460D6F82480D8F808404CB940F21F
:1050480071213046FFF735FF00230446C8F80800F1
:1050580003604FF00009EB070AD53946224630466F
:10506800FFF730FF804639463046FFF77FFE474658
:105078006D100BD0206838B9224621463046FFF71C
:1050880021FF2060C0F800900446E4E73846BDE8F8
:10509800F88300BF005500082DE9F0470C46074685
:1050A80091462369496803EB6218A3684FEA621ABC
:1050B80008F10106B3423FDB3846FFF723FE002321
:1050C800054600F1140100F110021846534536DB7D
:1050D80020692AEAEA7A04F1140319F01F0901EB9E
:1050E8008A0103EB800C2ED08A460022C9F1200EDB
:1050F800186800FA09F002434AF8042B53F8042B05
:105108009C4522FA0EF2F3D8ACEB0403153B23F0CE
:105118000303043304F11500604588BF0423CA5013
:105128000AB108F10206013E384621462E61FFF712
:105138001DFE2846BDE8F08701315B00BAE742F85A
:10514800040F0133C2E7043953F8042B9C4541F896
:10515800042FF9D8E7E703460A69006930B5801AD1
:105168000DD11433143103EB820401EB820154F89E
:10517800045D51F8042D954202D004D3012030BDBE
:10518800A342F4D3FBE74FF0FF30F8E72DE9F84FDF
:105198000C460646114620469246FFF7DCFF051EE0
:1051A80008D129463046FFF7ADFD0123C0E9043593
:1051B800BDE8F88FA4BF5346A2463046DAF804107B
:1051C800A6BF1C4600250125FFF79CFD00F1140829
:1051D800DAF81070C5600AF110020AF114054FF0F0
:1051E800000CC246266904F1140905EB870E09EB89
:1051F800860652F804BF59F8043B1FFA8BF1614444
:105208001FFA83FC1B0CA1EB0C01C3EB1B4303EB44
:10521800214389B24FEA234C4E4541EA03434AF8F9
:10522800043BE6D8331B153B23F003031534043342
:10523800A64238BF04231D4443441E462C467445E9
:105248000ED30EF10302521B22F00302033DAE45BA
:1052580038BF00221A4452F8043D8BB10761A7E712
:1052680054F8048B1FFA88F26244111401EB1841B8
:1052780092B242EA01424FEA214C46F8042BDEE79B
:10528800013FE8E72DE9F3411C46DDE90865012106
:105298009046FFF737FDC4F31303C4F30A540746D7
:1052A8002CBB0193B8F1000326D068460093FFF7A2
:1052B800D2FD0099F0B1019AC0F1200302FA03F37C
:1052C8000B43C2407B610192019B002B14BF02215A
:1052D8000121BB613961C4B1A4F233440444C0F173
:1052E800350034602860384602B0BDE8F08143F4E8
:1052F8008013D6E77961E7E701A8FFF7ACFD012144
:10530800019B39617B612030E5E707EB8103A0F25F
:10531800324030601869FFF77EFDC0EB411129600B
:10532800E1E738B502FB01F52946FEF7D5FA044650
:1053380018B12A460021FEF77BFA204638BD70478F
:10534800704782B001B901A942B14BB113780B6023
:105358001278101E18BF012002B070471046FBE7F4
:105368006FF00100F8E70346084641B1FF2A04D967
:105378008A224FF0FF301A60704701200A70704788
:10538800044A05491368002B08BF0B4618441060EF
:10539800184670473002002088040020F8B500BF86
:1053A800F8BC08BC9E467047F8B500BFF8BC08BCFE
:0453B8009E46704756
:1053C00002030405060708090A0B0C0D0E0F101046
:1053D00000000000000000000000000001020304C3
:1053E000060708090000000001020304494E4600B8
:1053F000696E66004E414E006E616E003000496E6F
:1054000066696E697479004E614E0000000000000C
:105410000080E03779C34143176E05B5B5B89346B0
:10542000F5F93FE9034F384D321D30F94877825A7C
:105430003CBF737FDD4F1575000000000000F03F9A
:10544000000000000000244000000000000059405F
:105450000000000000408F40000000000088C340B2
:1054600000000000006AF8400000000080842E4127
:1054700000000000D01263410000000084D7974173
:105480000000000065CDCD41000000205FA0024279
:10549000000000E876483742000000A2941A6D42EE
:1054A000000040E59C30A2420000901EC4BCD642E1
:1054B00000003426F56B0C430080E03779C341438C
:1054C00000A0D8855734764300C84E676DC1AB4302
:1054D000003D9160E458E143408CB5781DAF154420
:1054E00050EFE2D6E41A4B4492D54D06CFF08044FB
:1054F000F64AE1C7022DB544B49DD9794378EA4410
:1055000005000000190000007D0000004300504F1E
:10551000534958002E000020202020202020202049
:105520002828282828202020202020202020202053
:105530002020202020202088101010101010101083
:1055400010101010101010040404040404040404C7
:10555000041010101010101041414141414101014F
:10556000010101010101010101010101010101012B
:105570000101101010101010424242424242020239
:1055800002020202020202020202020202020202FB
:1055900002021010101020000000000000000000A7
:1055A00000000000000000000000000000000000FB
:1055B00000000000000000000000000000000000EB
:1055C00000000000000000000000000000000000DB
:1055D00000000000000000000000000000000000CB
:1055E00000000000000000000000000000000000BB
:1055F00000000000000000000000000000000000AB
:10560000000000000000000000000000000000009A
:08561000000000000000000092
:045618000D02000877
:04561C00E901000898
:10562000000068656C6C6F776F7200000102030404
:1056300005060708090A0000203040404201020325
:10564000040500000000000020304040420100003E
:10565000100000000024F4003C00002000000000C6
:10566000000000000000000000000000000000003A
:10567000000000000000000000000000000000002A
:10568000000000000000000000000000000000001A
:10569000000000000000000000000000000000000A
:1056A00000000000000000000000000000000000FA
:1056B00000000000000000000000000043000000A7
:1056C00000000000000000000000000000000000DA
:1056D0000000000000000000000000004300000087
:1056E00000000000000000000000000000000000BA
:1056F0000000000000000000000000004300000067
:105700000000000000000000000000000000000099
:105710000000000000000000000000004300000046
:105720000000000000000000000000000000000079
:105730000000000000000000000000004300000026
:105740000000000000000000000000000000000059
:105750000000000000000000000000004300000006
:105760000000000000000000000000000000000039
:1057700000000000000000000000000043000000E6
:105780000000000000000000000000000000000019
:105790000000000000000000000000006F5300083F
:1057A0004B5300080000000016550008145500086F
:1057B0001555000815550008155500081555000821
:1057C0001555000815550008155500081555000811
:1057D00015550008FFFFFFFFFFFFFFFFFFFFFFFF63
:1057E000FFFF000001004153434949000000000051
:1057F00000000000000000000000000000000000A9
:10580000000000000000415343494900000000002F
:105810000000000000000000000000000000000088
:08582000000000000000000080
:04000005080037694F
:00000001FF
